:100000000C94D9020C94F6020C94F6020C94F602AD
:100010000C94F6020C94F6020C94F6020C94F60280
:100020000C94F6020C94F6020C9456190C94901948
:100030000C94F6020C94F6020C94F6020C94F60260
:100040000C94F6020C94F6020C94F6020C94F60250
:100050000C941D030C94F6020C94F6020C94F60218
:100060000C94F6020C94F6020C94F6020C94F60230
:100070000C94F6020C94F6020C94F6020C94F60220
:100080000C94F6020C94F6020C94F6020C94E51112
:100090000C94F6020C94F6020C94F6020C94F60200
:1000A0000C94F6020C94F6020C94F602F618EE1874
:1000B000E618DE18D618CE18C618BE18B618AE1830
:1000C000A6189E1896188E1886187E1876186E1820
:1000D00066185E1856184E1846183E1836182E1810
:1000E00026181E1816180E180618FE17F617EE1703
:1000F000E617DE17D617CE17C617BE17B617AE17F8
:10010000A6179E1796178E1786177E1776176E17E7
:1001100066175E1756174E1746173E1736172E17D7
:1001200026171E1716170E170617FE16F61605A821
:100130004CCDB2D44EB93836A9020C50B99186884C
:10014000083CA6AAAA2ABE000000803F6E616E008D
:10015000696E660000407A10F35A00A0724E1809CA
:100160000010A5D4E80000E87648170000E40B541E
:10017000020000CA9A3B000000E1F50500008096ED
:100180009800000040420F000000A086010000001F
:10019000102700000000E8030000000064000000D9
:1001A00000000A00000000000100000000002C76A2
:1001B000D888DC674F0823DFC1DFAE59E1B1B796BD
:1001C000E5E3E453C63AE651997696E8E6C284261A
:1001D000EB898C9B62ED407C6FFCEFBC9C9F40F2F6
:1001E000BAA56FA5F490055A2AF75C936B6CF96772
:1001F0006DC11BFCE0E40D47FEF520E6B500D0ED37
:10020000902E0300943577050080841E080000209E
:100210004E0A000000C80C333333330F986E12833C
:100220001141EF8D2114893BE65516CFFEE6DB1810
:10023000D1844B381BF77C1D901DA4BBE4242032D5
:1002400084725E228100C9F124ECA1E53D27222CB5
:10025000206D757374206265203F206F72203D0D04
:100260000A00556E6B6E6F776E20636F6D6D616EF9
:1002700064202200222C206D75737420626520306A
:10028000206F7220310D0A00556E6B6E6F776E20F5
:1002900076616C75652022000D0A00222C206D7598
:1002A0007374206265203020746F20370D0A00556A
:1002B0006E6B6E6F776E2070696E202200222C208C
:1002C0006D7573742062652041202D20460D0A0053
:1002D000556E6B6E6F776E20706F72742022007592
:1002E0006E7265636F676E697A656420666F726DA2
:1002F00061742C2033206368617273206D696E20F5
:1003000072657127640D0A0000010000B503120038
:10031000020000720343000300006E03040103099E
:1003200004580314020309044003160303090432AA
:10033000030C0C03310032003300340035000000A0
:100340001603550053004200200053006500720060
:10035000690061006C000000140359006F00750013
:10036000720020004E0061006D0065000000040373
:10037000090409024300020100C03209040000011F
:1003800002020100052400100105240101010424DA
:100390000206052406000107058203100040090437
:1003A0000100020A000000070503024000000705E3
:1003B00084024000001201000202000010C0167A00
:1003C000040001010203010001C112018036018114
:1003D00036000000000000005F000000070007007A
:1003E000147F147F14242A7F2A1223130864623690
:1003F000495522500005030000001C224100004125
:10040000221C0014083E081408083E08080050305A
:1004100000000808080808006060000020100804B8
:10042000023E5149453E00427F40004261514946EB
:100430002141454B311814127F1027454545393C61
:100440004A49493001710905033649494936064987
:1004500049291E00363600000056360000081422D6
:10046000410014141414140041221408020151090B
:1004700006324979413E7E1111117E7F4949493644
:100480003E414141227F4141221C7F494949417FF0
:10049000090909013E4149497A7F0808087F00415E
:1004A0007F41002040413F017F081422417F4040AE
:1004B00040407F020C027F7F0408107F3E41414193
:1004C0003E7F090909063E4151215E7F09192946EF
:1004D000464949493101017F01013F4040403F1FEA
:1004E0002040201F3F4038403F6314081463070832
:1004F0007008076151494543007F414100020408EB
:1005000010200041417F00040201020440404040AD
:1005100040000102040020545454787F4844443879
:100520003844444420384444487F385454541808CC
:100530007E0901020C5252523E7F080404780044A6
:100540007D40002040443D007F1028440000417F52
:1005500040007C041804787C08040478384444443F
:10056000387C14141408081414187C7C080404083B
:100570004854545420043F4440203C4040207C1CBC
:100580002040201C3C4030403C44281028440C5063
:1005900050503C4464544C44000836410000007FF5
:1005A000000000413608001008081008784641464F
:1005B000780011241FBECFEFDAE0DEBFCDBF13E01D
:1005C000A0E0B1E0E8EEFCE402C005900D92A03599
:1005D000B107D9F72AE0A0E5B3E001C01D92A03130
:1005E000B207E1F70E94C6060C9472260C94000034
:1005F0009093BF008093CF00089580B38F7980BB24
:1006000084B18C7784B98AB18C7F8AB980B38C7FAE
:1006100080BB229A239A80E48BB91092800094E0E8
:100620009093810081E080936F00109290009093EE
:10063000910080937100789408951F920F920FB6E5
:100640000F9211242F923F924F925F926F927F925E
:100650008F929F92AF92BF92CF92DF92EF92FF92D2
:100660000F931F932F933F934F935F936F937F93BA
:100670008F939F93AF93BF93EF93FF93CF93DF93AA
:1006800000D000D0CDB7DEB70E94F11120917303E6
:10069000211195C00E9469217C836B8380915F0347
:1006A0008F5F80935F030E94D913382E292E80E03C
:1006B0000E94D80A8C0182E090E00E94F10F582E2F
:1006C000492E81E090E00E94F10F782E692E90E093
:1006D00080E00E94F10F982E892E0E947F10B82E84
:1006E000A92E0E947A10D82EC92E0E94BC15F82E71
:1006F000E92E0E94B01589839A832F923F92B80108
:1007000090E080E00E949F2126E636E648E051E432
:100710000E94F72020E030E040EF51E40E94812069
:100720000E9469217F936F934F925F926F927F92A5
:100730008F929F92AF92BF92CF92DF92EAE0F0E069
:100740008B819C81BF010E9467239F938F9326E03A
:1007500030E0CB01B9010E9467239F938F938B8177
:100760009C816CE370E00E946723CB01BF010E9473
:1007700067239F938F938B819C8168E572E00E9431
:100780006723CB01B9010E9467239F938F93EF9258
:10079000FF928A818F9399819F9387E191E09F9344
:1007A0008F931F9288EC8F9384E793E09F938F93AE
:1007B0000E94850A0FB6F894DEBF0FBECDBF0F9022
:1007C0000F900F900F90DF91CF91FF91EF91BF911C
:1007D000AF919F918F917F916F915F914F913F91D9
:1007E0002F911F910F91FF90EF90DF90CF90BF90CE
:1007F000AF909F908F907F906F905F904F903F90C1
:100800002F900F900FBE0F901F901895CF92DF92F0
:10081000EF92FF92CF93DF9380917303882379F057
:100820006091530370915403809155039091560346
:10083000DF91CF91FF90EF90DF90CF90089560917E
:100840005F03C0918400D091850070E090E080E06B
:100850000E94A12120E030E040E857E40E94952268
:100860006B017C01BE0190E080E00E949F219B0112
:10087000AC01C701B6010E94812020E030E040E8D1
:1008800053E40E94952220E034E244EF5AE40E94AF
:10089000F720CECFCF93DF93D0E0C0E041E067E216
:1008A00070E0CE010E94FA1A2296C435D105B1F744
:1008B000DF91CF9108950E94F21A21E043EA51E0BE
:1008C0006AE070E084E190E00E94A71C21E04CEA1D
:1008D00051E064E170E084E190E00E94A71C21E017
:1008E00047EB51E06EE170E084E190E00E94A71CCC
:1008F0001092BF0082E38093CF007E9B4AC00E948B
:10090000F21A0E94F21A21E045EF51E068E170E02E
:100910008AE290E00E94A71C0E94DF1A2FEF84E376
:100920009CE0215080409040E1F700C000000E9410
:10093000F21A21E04AEE51E068E170E08AE290E0CC
:100940000E94A71C0E94DF1A2FEF84E39CE0215035
:1009500080409040E1F700C000000E94F21A21E0C0
:1009600040E952E068E170E08AE290E00E94A71C52
:100970000E94DF1A2FEF84E39CE0215080409040DA
:10098000E1F700C000000E94F21A2A9A81E08093E9
:1009900051030C94DF1A0F931F93CF93DF930E94A0
:1009A0000604209157033091580340915903509108
:1009B0005A030E9480200E9469218B010E947A10B4
:1009C0009F938F9381EC91E09F938F93C4E7D3E043
:1009D000DF93CF930E94622521E0AE0170E060E0DA
:1009E00090E080E00E94A71C0E947F109F938F934D
:1009F00086EC91E09F938F93DF93CF930E946225C3
:100A000021E0AE0170E060E08CE190E00E94A71C64
:100A1000EAE0F0E0C801BF010E9467239F938F9333
:100A200026E030E0CB01B9010E9467239F938F93AA
:100A3000C8016CE370E00E946723CB01BF010E94F4
:100A400067239F938F93C80168E572E00E94672334
:100A5000CB01B9010E9467239F938F938BEC91E0A8
:100A60009F938F93DF93CF930E9462258DB79EB79C
:100A700048960FB6F8949EBF0FBE8DBF21E0AE0121
:100A800070E060E080E390E0DF91CF911F910F91E3
:100A90000C94A71C0E94F21A0E944A040E942A1574
:100AA0000E9458150E9489130C94640D0E94DE1355
:100AB0000C94B30B8091730391E0892780937303A7
:100AC00008951F93CF93DF930E94FD02E1E6F0E0CB
:100AD00080E8808311E010830E94D40ACFEBD0E03D
:100AE00083E088838FEF8093D10082E88093C000F9
:100AF0003F9A0E945A0A8FE30E94EA1C0E94060451
:100B000060935B0370935C0380935D0390935E033B
:100B100060935703709358038093590390935A033B
:100B20001093730310925203109251030E945605C2
:100B30000E944A050E948E1018821092CF00DF9109
:100B4000CF911F9108950E9461050E940B100E9491
:100B500010100E94D0110E948E1022982398EFEB63
:100B6000F0E010821092CF0083E080838FEF8093BB
:100B7000D10082E88093C0003F9A08950E94F21A43
:100B800021E047EB51E064E170E08FE090E00E94EB
:100B9000A71C6DE080E00E94CC1C81E08093520392
:100BA0000C94DF1A0E94F21A83E08093BF008FEF4B
:100BB0008093CF0021E047ED51E06AE070E084E1EE
:100BC00090E00E94A71C21E041EE51E064E170E05A
:100BD00084E190E00E94A71C21E04CEE51E06EE120
:100BE00070E084E190E00E94A71C7E9B06C01092FA
:100BF000BF001092CF000E94A3057D990E94BE0500
:100C000083E08093BF008FEF8093CF002A9A2B9AC6
:100C10000C94DF1A7E9903C08237910511F40C946D
:100C2000A305189903C08037910511F40C945A0557
:100C30001F9903C08337910521F40E94CB040C94C3
:100C4000DF1A499903C08737910531F42091730366
:100C5000211102C00C942812199903C08136910504
:100C600031F420917303211102C00C941814489997
:100C700003C08436910531F420917303211102C021
:100C80000C9451148F33910521F487EF91E00C946B
:100C9000350B8C36910511F40C94E40F87369105D1
:100CA00011F40C94D60F0895CF92DF92EF92FF9239
:100CB000CF93DF930E94F415EC010E940A060E9474
:100CC0007F101816190674F0229A239A0E94D205F2
:100CD00081E080937303DF91CF91FF90EF90DF90DD
:100CE000CF9008957D9907C080915203811103C070
:100CF000C137D10541F4DF91CF91FF90EF90DF90A4
:100D0000CF900C94BE058091730381113AC00E946C
:100D10008A140E9406046B017C0120E030E040E070
:100D200050E460915B0370915C0380915D0390914E
:100D30005E030E9481209B01AC01C701B6010E94A5
:100D40009022181614F40E9474110E946A070E94DF
:100D500019080E94C1080E94E2120E944A050E94DE
:100D60000604609353037093540380935503909348
:100D70005603DF91CF91FF90EF90DF90CF900C94CE
:100D8000DF1A0E94CB040E94DF1AE7CF0E940604FC
:100D90000E947021CB010E9409240E94370B0E94FF
:100DA0006105C1E080915103882339F0809152039D
:100DB000882369F090E080E008950E945B040E941F
:100DC000F4158237910571F7C0935103EBCF0E9460
:100DD0005406ECCF2F923F924F925F926F927F9288
:100DE0008F929F92AF92BF92CF92DF92EF92FF923B
:100DF0000F931F93CF93DF9300D000D00F92CDB706
:100E0000DEB73801FB01EC19FD09EA9D1001EB9DED
:100E1000300CFA9D300C1124EA8DFB8DEE19FF0980
:100E20002E0E3F1E8C01040F151F1B830A832B01FE
:100E3000420E531E97012A0D3B1D3D832C838C0CC3
:100E40009D1C2A813B81821793070CF041C0FC0155
:100E5000E20DF31DD3019B011AC08E159F058CF086
:100E60000C811D818017910764F42C153D054CF011
:100E70002815390534F40081003219F00C91003244
:100E800071F42F5F3F4FEA0DFB1DA40FB51F241512
:100E900035051CF301961FEF611A710AD2CF81E06C
:100EA0000F900F900F900F900F90DF91CF911F91A7
:100EB0000F91FF90EF90DF90CF90BF90AF909F90F9
:100EC0008F907F906F905F904F903F902F900895FC
:100ED00080E0E6CF2F923F924F925F926F927F9287
:100EE0008F929F92AF92BF92CF92DF92EF92FF923A
:100EF0000F931F93CF93DF9300D000D0CDB7DEB711
:100F0000712C612C0E94D613681679060CF48EC0E1
:100F10000F900F900F900F90DF91CF911F910F9135
:100F2000FF90EF90DF90CF90BF90AF909F908F9009
:100F30007F906F905F904F903F902F9008958B819E
:100F40009C810E941710843591050CF05EC08B8146
:100F50009C810E942610C0970CF057C02091000180
:100F60002983309101013A83C3010E94C9136B01A7
:100F70007C01C3010E94BC134B015C01009106017E
:100F8000109107018B819C810E9426101C018B818E
:100F90009C810E9417102C01C701B6010E94692193
:100FA0006B01C501B4010E9469212A812F93398107
:100FB0003F9382E0882E912C92E0A92EB12C7B01E8
:100FC00027E030E047E050E0B101C2010E94EA06AC
:100FD0000F900F908823C9F021E041E050E06AE0D3
:100FE0008AE00E948A0B6B817C8181E090E00E9404
:100FF000770EC3010E946E13809164039091650384
:10100000019690936503809364038B819C81019684
:101010009C838B830E9471102B813C812817390798
:101020000CF48DCF3FEF631A730A6CCF1C821B82C6
:10103000F1CF2F923F924F925F926F927F928F9259
:101040009F92AF92BF92CF92DF92EF92FF920F9357
:101050001F93CF93DF9300D000D0CDB7DEB7712CB4
:10106000612C0E94D613681679060CF487C00F9085
:101070000F900F900F90DF91CF911F910F91FF90E4
:10108000EF90DF90CF90BF90AF909F908F907F9028
:101090006F905F904F903F902F9008958B819C812F
:1010A0000E943510843591050CF057C08B819C81CE
:1010B0000E944410C0970CF050C020910001298379
:1010C000309101013A83C3010E94C9136B017C0175
:1010D000C3010E94BC134B015C01009104011091FB
:1010E00005018B819C810E9444101C018B819C8195
:1010F0000E9435102C01C701B6010E9469216B01C5
:10110000C501B4010E9469212A812F9339813F933F
:1011100082E0882E912C92E0A92EB12C7B0125E053
:1011200030E045E050E0B101C2010E94EA060F90B4
:101130000F90882391F06B817C8182E090E00E9487
:10114000770EC3010E946E13809162039091630336
:10115000019690936303809362038B819C81019637
:101160009C838B830E9474102B813C812817390744
:101170000CF494CF3FEF631A730A73CF1C821B8267
:10118000F1CF2F923F924F925F926F927F928F9208
:101190009F92AF92BF92CF92DF92EF92FF920F9306
:1011A0001F93CF93DF9300D000D0CDB7DEB7712C63
:1011B000612C0E94D613681679060CF487C00F9034
:1011C0000F900F900F90DF91CF911F910F91FF9093
:1011D000EF90DF90CF90BF90AF909F908F907F90D7
:1011E0006F905F904F903F902F9008958B819C81DE
:1011F0000E945310843591050CF057C08B819C815F
:101200000E946210C0970CF050C020910001298309
:10121000309101013A83C3010E94C9136B017C0123
:10122000C3010E94BC134B015C01009102011091AB
:1012300003018B819C810E9462101C018B819C8127
:101240000E9453102C01C701B6010E9469216B0155
:10125000C501B4010E9469212A812F9339813F93EE
:1012600082E0882E912C92E0A92EB12C7B0123E004
:1012700030E043E050E0B101C2010E94EA060F9065
:101280000F90882391F06B817C8183E090E00E9435
:10129000770EC3010E946E138091600390916103E9
:1012A000019690936103809360038B819C810196EA
:1012B0009C838B830E9477102B813C8128173907F0
:1012C0000CF494CF3FEF631A730A73CF1C821B8216
:1012D000F1CF80910601909107010895809104015A
:1012E0009091050108958091020190910301089564
:1012F00080910001909101010895CF93DF93EC015B
:10130000FE0184912196882319F00E944416F8CF9B
:10131000DF91CF910895EF92FF920F931F93CF9398
:10132000DF93082FF92EE62E10E01E15F8F40E9428
:10133000F4158F3F9807A9F08D309105B9F08A30E8
:101340009105A1F09C01205231092F35310568F734
:10135000C02FDF2D89930E9444161F5F0C2FFD2E96
:10136000E4CF0E94F115811109C01FEF812FDF9199
:10137000CF911F910F91FF90EF9008950E9428192F
:1013800080FDD3CFF2CFCF93DF93EC018FED92E0CE
:10139000633090F08881EFEBE80FE63088F0EFE9FA
:1013A000E80FE63068F080ED92E00E947D098881C8
:1013B0000E9444168DEB92E0DF91CF910C947D0951
:1013C000898180538830F0F49A819F3339F543E066
:1013D000E49FF001112421E030E0A90102C0440F94
:1013E000551F8A95E2F7CA01242F209591A19223D7
:1013F00091A390A1892381F480E30E94441688E997
:1014000092E0DACF8FEA92E00E947D0988810E9403
:1014100044168BE992E0D0CF81E3EFCF6330D9F16E
:101420009D33C9F59B819033B9F453E0E59FF001FA
:10143000112421E030E0A90102C0440F551F8A9514
:10144000E2F7CA0191A1982B91A3809592A18923DB
:1014500082A3DF91CF910895913399F453E0E59FF2
:10146000F001112421E030E0A90102C0440F551F12
:101470008A95E2F7CA0191A1982B91A392A1892B99
:10148000E7CF88E892E00E947D098B810E94441694
:1014900084E792E091CF82E692E00E947D09888104
:1014A0000E9444168EE492E087CF9093BF00809311
:1014B000CF00089583E08093BF008FEF8093D10029
:1014C00082E88093C0003F9A87E08093C100109229
:1014D000C3000895CF93DF93CDB7DEB79E01215FA0
:1014E0003F4F4D855E856B857C8589859A850E94F9
:1014F000852521E049855A856F8178858D819E817A
:101500000E94A71CDF91CF9108950F931F93CF9353
:10151000DF93CDB7DEB70F8118859E01235F3F4F64
:101520004B855C8569857A85C8010E948525F8010F
:1015300001900020E9F73197BF01601B710BC801D2
:101540000E94A316DF91CF911F910F910895AB01D7
:1015500090E0FA01E90FF11D2081211110C0682FE0
:1015600070E025E0929FC001112495958795919593
:1015700081959109865D21E090E00C94A71C9F5F06
:10158000E8CFCF93DF93EC018991811108C08DE002
:101590000E9444168AE0DF91CF910C9444160E9479
:1015A0004416F2CF0C94C10A87E880937A0008951C
:1015B000982F9F71906490937C00807280937B0041
:1015C00080917A00806480937A0080917A0086FD11
:1015D000FCCF809178009091790008954F925F92AE
:1015E0006F927F928F929F92AF92BF92CF92DF9233
:1015F000EF92FF920F931F93CF93DF933C015A0119
:101600002901EB01D12CC12CC414D50454F1DF9174
:10161000CF911F910F91FF90EF90DF90CF90BF90EF
:10162000AF909F908F907F906F905F904F900895B4
:10163000F40181914F01803239F041E0BE01C301D4
:101640008E0D9F1D0E94FA1AFFEFEF1AFF0AEA148F
:10165000FB0474F38FEFC81AD80A0A0D1B1D2196DC
:10166000D3CF4801F12CE12CF2CF0C94C10A8FE3C7
:101670000E94EA1C21E048EE52E06AE070E08AE055
:1016800090E00E94A71C0E94DF1A0E94D8150E94B9
:10169000F1158823E1F30E94F21A21E047EF52E0AE
:1016A0006AE070E08AE090E00E94A71C85E093E089
:1016B0000E94C10A81E193E00E94C10A0C94DF1AE2
:1016C0000F93CF93DF93D82FC62F5F934F933F9302
:1016D0002F9384E193E09F938F931F9284E18F93E4
:1016E00084E793E09F938F930E9432258DB79EB736
:1016F0000A960FB6F8949EBF0FBE8DBF6C2F70E098
:10170000202F44E753E08D2F90E0DF91CF910F9190
:101710000C94A71C1F93CF93DF93D82FC62F122FA3
:101720005F934F9388EC91E09F938F931F9284E196
:101730008F9384E793E09F938F930E9432258DB718
:101740009EB708960FB6F8949EBF0FBE8DBF6C2F44
:1017500070E0212F44E753E08D2F90E0DF91CF918F
:101760001F910C94A71C4F925F926F927F928F9261
:101770009F92AF92BF92CF92DF92EF92FF920F9320
:101780001F93CF93DF93C5EBD4E00DE615E084E51E
:10179000882E912C90E3C92ED12C0E940424B401F0
:1017A0000E946723BC01990F880B990B0E94A1210D
:1017B00069937993899399930E94042491958195D3
:1017C0009109B6010E946723BC01990F880B990B00
:1017D0000E94A121F80161937193819391938F01EC
:1017E0007E01F4E0EF1AF108F70140805180628039
:1017F000738020E030E040EE50E4C301B2010E946B
:10180000ED2087FD81C020E030E040E952E4C301D3
:10181000B2010E94902218160CF476C05801F4E030
:10182000AF1AB108F501408051806280738020E0DA
:1018300030E040EE50ECC301B2010E949022181635
:101840000CF473C020E030E040E751ECC301B2017A
:101850000E94ED2087FD69C0F701408051806280C1
:10186000738020E030E048E252E4C301B2010E94FC
:10187000ED2087FF6EC01A9A8FE39CE90197F1F77C
:1018800000C000001A98EFE3FCE93197F1F700C0BF
:1018900000001A9A8FE39CE90197F1F700C000005D
:1018A0001A98F4E0C13CDF0709F077CFEDE3F5E0EB
:1018B00080E090E0A8ECB2E481939193A193B1937E
:1018C00025E0ED36F207C1F7E5E8F4E08DE994E0B4
:1018D00040E050E068EC72E441935193619371935E
:1018E0008E179F07C9F7DF91CF911F910F91FF903E
:1018F000EF90DF90CF90BF90AF909F908F907F90B0
:101900006F905F904F9008950E940424B4010E944C
:101910006723BC01990F880B990B0E94A121F70145
:1019200060837183828393835FCF0E9404249195A7
:1019300081959109B6010E946723BC01990F880B1C
:10194000990B0E94A121F5016083718382839383A7
:1019500069CF20E030E048E252E4C301B2010E94C6
:10196000902218160CF09DCF1B9AEFE3FCE93197FB
:10197000F1F700C000001B988FE39CE90197F1F795
:1019800000C000001B9AEFE3FCE93197F1F700C0BB
:1019900000001B9886CFCF92DF92EF92FF920F93B9
:1019A0001F93CF93DF93EC010E9469098C01CC0F48
:1019B000DD1FCC0FDD1FFE01E359FA4F60817181FD
:1019C000828193810E9469216B01CB54DB4F688136
:1019D00079818A819B810E946921CB0127E030E0D7
:1019E00047E050E0B6010E94EE0ADF91CF911F91CF
:1019F0000F91FF90EF90DF90CF900895CF92DF92FC
:101A0000EF92FF920F931F93CF93DF93EC010E940D
:101A10006E098C01CC0FDD1FCC0FDD1FFE01EF5DC9
:101A2000FA4F60817181828193810E9469216B01EB
:101A3000CB57DB4F688179818A819B810E94692124
:101A4000CB0125E030E045E050E0B6010E94EE0A0F
:101A5000DF91CF911F910F91FF90EF90DF90CF908A
:101A60000895CF92DF92EF92FF920F931F93CF933F
:101A7000DF93EC010E9473098C01CC0FDD1FCC0FAA
:101A8000DD1FFE01E35CFB4F6081718182819381E8
:101A90000E9469216B01C35CDA4F688179818A8178
:101AA0009B810E946921CB0123E030E043E050E0BC
:101AB000B6010E94EE0ADF91CF911F910F91FF9026
:101AC000EF90DF90CF900895CF93DF9390E080E088
:101AD0000E94CB0C81E090E00E94CB0C82E090E071
:101AE0000E94CB0CD0E0C0E0CE010E94FE0C2196FB
:101AF000C630D105C9F7D0E0C0E0CE010E94310D5B
:101B00002196CC30D105C9F7DF91CF9108950F937D
:101B10001F93CF93DF938C01EB0181E00E94D80AE1
:101B2000BC0190E080E00E949F2120E030E040E096
:101B30005AE30E9495220130110509F450C0023089
:101B4000110509F490C0012B09F044C0CC0FDD1F32
:101B5000CC0FDD1F8E0103591A4FF801208131810E
:101B6000428153810E948120F801608371838283C6
:101B7000938320E030E044E052E40E94902287FD0D
:101B800029C0CB54DB4F20E030E048EA52E46881C2
:101B900079818A819B810E94ED2087FF1BC080E0B4
:101BA00090E0A8ECB2E4F80180839183A283B38330
:101BB0008091080190910901019790930901809308
:101BC00008018091790590917A05019790937A05A3
:101BD00080937905DF91CF911F910F910895CC0FDC
:101BE000DD1FCC0FDD1F8E010F5D1A4FF801208124
:101BF0003181428153810E948120F8016083718389
:101C00008283938320E030E04CE052E40E949022F3
:101C100087FDE0CFCB57DB4F20E030E048EA52E4CD
:101C2000688179818A819B810E94ED2087FFD2CFD4
:101C300080E090E0A8ECB2E488839983AA83BB8318
:101C40008091080190910901019790930901809377
:101C500008018091390590913A05019790933A05D2
:101C600080933905B7CFCC0FDD1FCC0FDD1F8E0160
:101C7000035C1B4FF80120813181428153810E9416
:101C80008120F801608371838283938320E030E0B8
:101C900044E152E40E94902287FD9CCFC35CDA4F5E
:101CA00020E030E048EA52E4688179818A819B81B2
:101CB0000E94ED2087FF8ECF80E090E0A8ECB2E498
:101CC00088839983AA83BB8380910801909109013D
:101CD0000197909309018093080180913B059091B1
:101CE0003C05019790933C0580933B0573CFAF92E1
:101CF000BF92CF92DF92EF92FF920F931F93CF93F9
:101D0000DF938230910509F4A0C08330910509F476
:101D10002FC1019709F08EC08B01000F111F6B01BD
:101D2000E3E0CC0CDD1CEA95E1F7C6018B579B4F35
:101D30005C01EB01CC0FDD1FCC0FDD1FFE01EB546E
:101D4000FB4F7F0120E030E040EA50E46081718188
:101D5000828193810E948020F50160837183828358
:101D60009383F601EF5DFA4FC359DA4F8881998169
:101D7000AA81BB8180839183A283B383C8010E941F
:101D8000FE0CB80181E090E00E94870D6801FFEF32
:101D9000CF1ADF0A8601000F111F000F111FC801A3
:101DA0008B579B4F5C0120E030E040EA50E4F701A4
:101DB00060817181828193810E948120F50160831D
:101DC000718382839383F801EF5DFA4F8881998153
:101DD000AA81BB8180839183A283B383C6010E94C1
:101DE000FE0CB60181E090E00E94870D80E090E05B
:101DF000A8ECB2E4F70180839183A283B38380913E
:101E0000790590917A05019790937A0580937905E9
:101E10008091390590913A05029690933A05809306
:101E2000390580916603909167030196909367034B
:101E300080936603DF91CF911F910F91FF90EF90F8
:101E4000DF90CF90BF90AF9008958B01000F111FCE
:101E50006B0123E0CC0CDD1C2A95E1F7C601835C05
:101E60009A4F5C01EB01CC0FDD1FCC0FDD1FFE0193
:101E7000EB57FB4F7F0120E030E040E450E460810D
:101E80007181828193810E948020F501608371833A
:101E900082839383F601E35CFB4FCF5DDA4F888149
:101EA0009981AA81BB8180839183A283B383C80176
:101EB0000E94310DB80182E090E00E94870D680118
:101EC000FFEFCF1ADF0A8601000F111F000F111F4D
:101ED000C801835C9A4F5C0120E030E040E450E4AC
:101EE000F70160817181828193810E948120F501D7
:101EF0006083718382839383F801E35CFB4F888165
:101F00009981AA81BB8180839183A283B383C60117
:101F10000E94310DB60182E090E00E94870D80E0C2
:101F200090E0A8ECB2E4F70180839183A283B383AD
:101F300080E090E0A0EEB0EC88839983AA83BB8315
:101F400080913B0590913C05029690933C058093CF
:101F50003B058091390590913A05019790933A0598
:101F600080933905809166039091670302965ECF56
:101F7000660F771F660F771FFB01E35CFA4F80E067
:101F800090E0A8ECB2E480839183A283B383809134
:101F90003B0590913C05019790933C0580933B0550
:101FA0008091660390916703049640CF0E94F415D8
:101FB00097FD05C090936703809366030895109280
:101FC00067031092660308950E94F4158630910508
:101FD00028F49093090180930801089585E090E02A
:101FE000F8CF8130910551F08230910561F0892B55
:101FF00079F48091790590917A0508958091390559
:1020000090913A05089580913B0590913C05089583
:1020100090E080E00895109267031092660308959F
:1020200085E090E090930901809308010895880F5E
:10203000991F880F991FFC01EB54FB4F6081718140
:10204000828193810E946921CB010895880F991F95
:10205000880F991FFC01E359FA4F608171818281D9
:1020600093810E946921CB010895880F991F880FE1
:10207000991FFC01EB57FB4F608171818281938135
:102080000E946921CB010895880F991F880F991F1D
:10209000FC01EF5DFA4F60817181828193810E9422
:1020A0006921CB010895880F991F880F991FFC01A2
:1020B000E35CFA4F60817181828193810E94692182
:1020C000CB010895880F991F880F991FFC01E35CCD
:1020D000FB4F60817181828193810E946921CB01D4
:1020E000089583E090E0089586E090E008958CE004
:1020F00090E0089580916603909167030895809120
:1021000008019091090197FF04C0109209011092F3
:1021100008018091080190910901089583E090E001
:1021200090937A058093790510923A0510923905BB
:1021300010923C0510923B0508954F925F926F926A
:102140007F92AF92BF92CF92DF92EF92FF920F9366
:102150001F93CF93DF9380913B0590913C05209195
:10216000790530917A05822B932B20913905309196
:102170003A05822B932B892B09F0A7C0C5EBD4E03D
:102180000DE615E084E5E82EF12C90E3C92ED12C64
:102190000E940424B7010E946723BC01990F880B99
:1021A000990B0E94A12169937993899399930E9435
:1021B0000424919581959109B6010E946723BC0181
:1021C000990F880B990B0E94A121F80161937193DB
:1021D000819391938F015E01F4E0AF1AB108F5018C
:1021E000408051806280738020E030E040EE50E417
:1021F000C301B2010E94ED2087FD42C020E030E023
:1022000040E952E4C301B2010E9490221816C4F1C1
:102210005801F4E0AF1AB108F501408051806280A6
:10222000738020E030E040EE50ECC301B2010E9428
:1022300090221816B4F120E030E040E751ECC301E1
:10224000B2010E94ED2087FD2CC0F4E0C13CDF0705
:1022500009F09ECF83E090E090937A058093790512
:10226000DF91CF911F910F91FF90EF90DF90CF9072
:10227000BF90AF907F906F905F904F900C948E10B6
:102280000E940424B7010E946723BC01990F880BA8
:10229000990B0E94A121F50160837183828393834E
:1022A0009ECF0E940424919581959109B6010E94C8
:1022B0006723BC01990F880B990B0E94A121F5019E
:1022C0006083718382839383A7CFDF91CF911F9126
:1022D0000F91FF90EF90DF90CF90BF90AF907F90E5
:1022E0006F905F904F9008950F931F93CF93DF935C
:1022F0000E949D1005EB14E0D0E0C0E0F801619170
:102300007191819191918F0120E030E048EA52E48F
:102310000E94ED2087FF05C0BE0190E080E00E9492
:10232000870D2196C330D10549F705E814E0D0E0C8
:10233000C0E0F80161917191819191918F0120E04C
:1023400030E048EA52E40E94ED2087FF05C0BE015C
:1023500081E090E00E94870D2196C630D10549F7B3
:102360000DE315E0D0E0C0E0F80161917191819139
:1023700091918F0120E030E048EA52E40E94ED2084
:1023800087FF05C0BE0182E090E00E94870D219684
:10239000CC30D10549F7DF91CF911F910F9108956E
:1023A000EBE7F5E080E090E0A8ECB2E410828183F6
:1023B0009283A383B4833D9628E0E530F207B1F71A
:1023C00010926E0310926D0308958F938FB78F93C1
:1023D000809168038F5F809368038F918FBF8F9187
:1023E0001895CF92DF92EF92FF92CF93DF93609197
:1023F0006803C0919400D091950070E090E080E077
:102400000E94A12120E030E040E857E40E9495229C
:102410006B017C01BE0190E080E00E949F219B0146
:10242000AC01C701B6010E94812020E030E040E805
:1024300053E40E94952220E034E244EF5AE40E94E3
:10244000F720DF91CF91FF90EF90DF90CF9008952C
:102450008F929F92AF92BF92CF92DF92EF92FF92B4
:102460000F931F93CF93DF9380E00E94D80A6C01F3
:1024700080E00E94D80A7C01CBE7D5E010E000E0C4
:102480008881811197C00E94F1114B015C012DECF4
:102490003CEC4CE45EE36091690370916A038091C7
:1024A0006B0390916C030E9481209B01AC01C501DC
:1024B000B4010E94902218160CF07CC00E94F11109
:1024C0006093690370936A0380936B0390936C032A
:1024D0008DE0809FE001819FD00D1124C558DA4F17
:1024E00081E088830E94B0158C01C60166E470E02B
:1024F0000E94532390E080E00E949F214B015C01E9
:10250000B801110F880B990B0E94A1219B01AC010E
:10251000C501B4010E94812020E030E040E050E499
:102520000E94802069837A838B839C830E94BC15E0
:102530000597BC01990F880B990B0E94A1216D830F
:102540007E838F839887B70190E080E00E949F216F
:1025500026E636E648E051E40E94F72020E030E02D
:1025600040EF51E40E94812025E33AEF4EE85CE31E
:102570000E9495222BED3FE049E450E40E94802028
:1025800069877A878B879C8780916D0390916E0312
:10259000019690936E0380936D03DF91CF911F910D
:1025A0000F91FF90EF90DF90CF90BF90AF909F90F2
:1025B0008F9008950F5F1F4F2D960233110509F07C
:1025C0005FCFEBCF4F925F926F927F928F929F92ED
:1025D000AF92BF92CF92DF92EF92FF920F931F9331
:1025E000CF93DF9300916D0310916E03CBE7D5E09D
:1025F000412C512C80EA682E82E4782E8881882331
:1026000009F451C089849A84AB84BC84C501B401A7
:102610000E94F2202DEC3CEC4CE45FE30E949522FA
:1026200029813A814B815C810E9481206B017C0170
:10263000C982DA82EB82FC82C501B4010E940223C6
:102640002DEC3CEC4CE45FE30E9495222D813E8111
:102650004F8158850E9481206D837E838F83988768
:1026600020E030E040E050EC0E94ED2087FD14C0F7
:1026700020E030E040E050ECC701B6010E94ED20C0
:1026800087FD0AC020E030E04AEA52E4C701B60103
:102690000E94902218163CF41882015011094982B8
:1026A0005A826B827C822D9688E0C530D80709F06B
:1026B000A5CF10936E0300936D03DF91CF911F910F
:1026C0000F91FF90EF90DF90CF90BF90AF909F90D1
:1026D0008F907F906F905F904F9008952DE0289F8E
:1026E000F001299FF00D1124E558FA4F80E090E0A9
:1026F000A0EFB2E485839683A783B08780916D03B2
:1027000090916E03019790936E0380936D031082F6
:102710000895CF92DF92EF92FF920F931F93CF9382
:10272000DF93CBE7D5E088818823C1F00E94780948
:102730008C016D817E818F8198850E9469216B015A
:1027400069817A818B819C810E946921CB0122E081
:1027500030E042E050E0B6010E94EE0A2D9688E09B
:10276000C530D80701F7DF91CF911F910F91FF90EE
:10277000EF90DF90CF9008952DE0289FF001299FE2
:10278000F00D1124E558FA4F6181728183819481A3
:1027900008952DE0289FF001299FF00D1124E558A0
:1027A000FA4F6581768187819085089582E390E074
:1027B000089580916D0390916E03089580E090E0FC
:1027C000A4E1B2E480930B0890930C08A0930D0849
:1027D000B0930E0880E090E0ACE2B2E4809314087D
:1027E00090931508A0931608B093170880E090E026
:1027F000A0E8BFE38093070890930808A093090816
:10280000B0930A080E94042480FD11C0809107083B
:1028100090910808A0910908B0910A08B0588093D7
:10282000070890930808A0930908B0930A08089530
:10283000CF92DF92EF92FF92C0900708D0900808E5
:10284000E0900908F0900A0820E030E0A901C701F3
:10285000B6010E94ED20811111C080E090E0A0E857
:10286000BFEB8093070890930808A0930908B093E2
:102870000A08FF90EF90DF90CF90089520E030E0BD
:1028800040E85FEBC701B6010E94ED20882389F381
:1028900010920708109208081092090810920A086E
:1028A000E8CFCF92DF92EF92FF92C0900708D090CE
:1028B0000808E0900908F0900A0820E030E0A9013B
:1028C000C701B6010E94ED20811111C080E090E0A7
:1028D000A0E8BFE38093070890930808A093090835
:1028E000B0930A08FF90EF90DF90CF90089520E01A
:1028F00030E040E85FE3C701B6010E94ED20882385
:1029000089F3109207081092080810920908109293
:102910000A08E8CF8F929F92AF92BF92CF92DF9238
:10292000EF92FF9280900B0890900C08A0900D08F9
:10293000B0900E0820E030E0A901C501B4010E946A
:10294000902218169CF5C0900708D0900808E090D7
:102950000908F0900A0820E030E0A901C701B6019B
:102960000E94ED2087FF22C0A7019601C501B40196
:102970000E94812060930B0870930C0880930D08CF
:1029800090930E0860910F0870911008072E000CAC
:10299000880B990B0E94A121A70196010E9481201A
:1029A0000E9469217093100860930F0880900B08B3
:1029B00090900C08A0900D08B0900E0820E030E038
:1029C00040E351E4C501B4010E94812020E030E0E1
:1029D00048EA52E40E94ED2087FF33C0C090070808
:1029E000D0900808E0900908F0900A0820E030E054
:1029F000A901C701B6010E949022181614F5A7017B
:102A00009601C501B4010E94812060930B08709368
:102A10000C0880930D0890930E0860910F08709138
:102A20001008072E000C880B990B0E94A121A7010A
:102A300096010E9481200E94692170931008609382
:102A40000F08FF90EF90DF90CF90BF90AF909F90D6
:102A50008F900895CF92DF92EF92FF920F931F9382
:102A600000910A0110910B016091140870911508F2
:102A700080911608909117080E9469216B0160915E
:102A80000B0870910C0880910D0890910E080E941F
:102A90006921CB0125E030E04BE050E0B6010E9417
:102AA000EE0A1F910F91FF90EF90DF90CF90089565
:102AB0008F929F92AF92BF92CF92DF92EF92FF924E
:102AC0000F9320E030E040EA50E460910B087091F1
:102AD0000C0880910D0890910E080E9481200E94A0
:102AE00069216B0160911408709115088091160896
:102AF000909117080E9469214B0180E00E94D80A3A
:102B000066E670E00E945323072E000C880B990B99
:102B10000E94A12120910B0830910C0840910D08D2
:102B200050910E080E9481200E9469217093100824
:102B300060930F0829E230E03093130820931208C5
:102B400001E0AB01B401C6010E94201B0F91FF9070
:102B5000EF90DF90CF90BF90AF909F908F900895AF
:102B600060910B0870910C0880910D0890910E08EF
:102B70000E946921CB010895609114087091150895
:102B800080911608909117080E946921CB01089541
:102B90008BE090E0089585E090E0089580910A012F
:102BA00090910B0108958091E80080FFFCCF08957B
:102BB00081E08093D70080EA8093D80082E189BDCC
:102BC00009B400FEFDCF80E98093D8001092E000A8
:102BD0001092720310926F038CE08093E20078945D
:102BE00008958091720308959FB7F89480917203BD
:102BF000882369F083E08093E9002BE68091E80068
:102C000085FD09C082FF03C02093E800F7CF9FBF76
:102C10008FEF9FEF08958091F1002091E80025FD4E
:102C200003C02BE62093E8009FBF90E008952FB7E4
:102C3000F89480917203811102C080E010C083E09B
:102C40008093E9008091F200811109C09091E80021
:102C500092FFF3CF95FDF1CF9BE69093E8002FBF55
:102C6000089580917203882371F08FB7F89493E0F0
:102C70009093E9002BE69091E80095FF03C0209324
:102C8000E800F9CF8FBF089590917203992371F0F6
:102C90009FB7F89424E02093E90020917003222349
:102CA00049F02091E80025FD03C09FBF8FEF0895F4
:102CB000109270032091E400275E34E04091E80018
:102CC00045FD12C09FBF9091E400921304C081E0C3
:102CD00080937003EBCF90917203992339F39FB7E0
:102CE000F8943093E900EACF8093F1008091E800F6
:102CF00085FD03C08AE38093E80085E0809371033B
:102D00009FBF80E00895909172039923D1F09FB7FF
:102D1000F89424E02093E9002091E80025FD02C00A
:102D20009FBF0FC08093F1008091E80085FD03C034
:102D30008AE38093E80085E0809371039FBF80E081
:102D400008958FEF0895EF92FF921F93CF93DF9333
:102D50007C01CB0120917203222371F0AFB7F8946C
:102D600024E02093E90020917003222349F0209170
:102D7000E80025FD03C0AFBF8FEF42C21092700381
:102D8000B4E0C0E4DAE315E0009709F438C220911A
:102D9000E400275E3091E80035FD12C0AFBF3091EE
:102DA000E400321304C081E080937003E5CF3091DA
:102DB0007203332309F3AFB7F894B093E900EACF75
:102DC0002091F2004C2F421B242F30E082179307F2
:102DD00008F4482F841B910950E04134510508F054
:102DE000FDC14A5A5F4FFA010C947B23F701208101
:102DF0002093F10097012F5F3F4F7901F701208168
:102E00002093F10097012F5F3F4F7901F701208157
:102E10002093F10097012F5F3F4F7901F701208147
:102E20002093F10097012F5F3F4F7901F701208137
:102E30002093F10097012F5F3F4F7901F701208127
:102E40002093F10097012F5F3F4F7901F701208117
:102E50002093F10097012F5F3F4F7901F701208107
:102E60002093F10097012F5F3F4F7901F7012081F7
:102E70002093F10097012F5F3F4F7901F7012081E7
:102E80002093F10097012F5F3F4F7901F7012081D7
:102E90002093F10097012F5F3F4F7901F7012081C7
:102EA0002093F10097012F5F3F4F7901F7012081B7
:102EB0002093F10097012F5F3F4F7901F7012081A7
:102EC0002093F10097012F5F3F4F7901F701208197
:102ED0002093F10097012F5F3F4F7901F701208187
:102EE0002093F10097012F5F3F4F7901F701208177
:102EF0002093F10097012F5F3F4F7901F701208167
:102F00002093F10097012F5F3F4F7901F701208156
:102F10002093F10097012F5F3F4F7901F701208146
:102F20002093F10097012F5F3F4F7901F701208136
:102F30002093F10097012F5F3F4F7901F701208126
:102F40002093F10097012F5F3F4F7901F701208116
:102F50002093F10097012F5F3F4F7901F701208106
:102F60002093F10097012F5F3F4F7901F7012081F6
:102F70002093F10097012F5F3F4F7901F7012081E6
:102F80002093F10097012F5F3F4F7901F7012081D6
:102F90002093F10097012F5F3F4F7901F7012081C6
:102FA0002093F10097012F5F3F4F7901F7012081B6
:102FB0002093F10097012F5F3F4F7901F7012081A6
:102FC0002093F10097012F5F3F4F7901F701208196
:102FD0002093F10097012F5F3F4F7901F701208186
:102FE0002093F10097012F5F3F4F7901F701208176
:102FF0002093F10097012F5F3F4F7901F701208166
:103000002093F10097012F5F3F4F7901F701208155
:103010002093F10097012F5F3F4F7901F701208145
:103020002093F10097012F5F3F4F7901F701208135
:103030002093F10097012F5F3F4F7901F701208125
:103040002093F10097012F5F3F4F7901F701208115
:103050002093F10097012F5F3F4F7901F701208105
:103060002093F10097012F5F3F4F7901F7012081F5
:103070002093F10097012F5F3F4F7901F7012081E5
:103080002093F10097012F5F3F4F7901F7012081D5
:103090002093F10097012F5F3F4F7901F7012081C5
:1030A0002093F10097012F5F3F4F7901F7012081B5
:1030B0002093F10097012F5F3F4F7901F7012081A5
:1030C0002093F10097012F5F3F4F7901F701208195
:1030D0002093F10097012F5F3F4F7901F701208185
:1030E0002093F10097012F5F3F4F7901F701208175
:1030F0002093F10097012F5F3F4F7901F701208165
:103100002093F10097012F5F3F4F7901F701208154
:103110002093F10097012F5F3F4F7901F701208144
:103120002093F10097012F5F3F4F7901F701208134
:103130002093F10097012F5F3F4F7901F701208124
:103140002093F10097012F5F3F4F7901F701208114
:103150002093F10097012F5F3F4F7901F701208104
:103160002093F10097012F5F3F4F7901F7012081F4
:103170002093F10097012F5F3F4F7901F7012081E4
:103180002093F10097012F5F3F4F7901F7012081D4
:103190002093F10097012F5F3F4F7901F7012081C4
:1031A0002093F10097012F5F3F4F7901F7012081B4
:1031B0002093F10097012F5F3F4F7901F7012081A4
:1031C0002093F10097012F5F3F4F7901F701208194
:1031D0002093F10097012F5F3F4F7901F701208184
:1031E0002093F10097012F5F3F4F79012091E80074
:1031F00025FFD093E80010937103AFBFC5CD80E0E9
:10320000DF91CF911F91FF90EF9008958FB7F894C1
:1032100090917103992341F094E09093E9009AE32F
:103220009093E800109271038FBF089560910C0194
:1032300070910D0180910E0190910F010895809180
:10324000100108958091110108958091120108954F
:1032500080916F0308959FB7F89420917203222301
:1032600039F022E02093E9002091E80025FD03C019
:103270009FBF8FEF089521EA2093F10020E2209371
:10328000F1001092F1001092F1001092F1001092F2
:10329000F10021E02093F1001092F1008093F10001
:1032A0008AE38093E8009FBF80E008951F920F9209
:1032B0000FB60F9211248F939F938091E10010928B
:1032C000E10083FF11C01092E90091E09093EB00C0
:1032D0001092EC0092E19093ED0098E09093F00052
:1032E0001092720310926F0382FF13C080917203D9
:1032F000882379F080917103882359F0815080935D
:103300007103811106C084E08093E9008AE3809311
:10331000E8009F918F910F900FBE0F901F9018950E
:103320001F920F920FB60F921124EF92FF920F93FC
:103330001F932F933F934F935F936F937F938F933D
:103340009F93AF93BF93EF93FF93CF93DF931F921E
:10335000CDB7DEB71092E9008091E80083FF14C179
:103360009091F1008091F1003091F1002091F100F5
:10337000E32EF12CF22A0091F1002091F10010E0EF
:10338000122B2091F1006091F10032EF3093E800B0
:10339000863009F046C036E088E093E0FC014591B4
:1033A00054914E155F0539F4FC01329645915491C4
:1033B0004017510721F00796315081F7E5C0FC0115
:1033C000349645915491FC013696849130E0362B29
:1033D0002F3F310519F010F02FEF30E0281708F4D7
:1033E000822F3EEF9091E800292F2570D9F392FDAE
:1033F000CEC0982F813108F090E1FA01292F2223C5
:1034000031F064916093F10021503196F8CF490F6B
:10341000511D891B3093E8008111E4CF903111F3E5
:10342000B6C0853051F48EEF8093E8000E94D3152A
:103430008E2D80688093E300AAC0893059F59111E0
:1034400080C0E092720310926F03109271038EEFAE
:103450008093E80041E087EC93E04093E9009C0111
:103460002F5F3F4FFC0154915093EB00552359F0CF
:10347000F90124912093EC009C012D5F3F4F319680
:1034800084918093ED004F5F453011F0C901E5CF85
:103490008EE175C0883051F4903809F052C00E9416
:1034A000D315809172038093F10047C0813279F483
:1034B000913A09F046C00E94D315ECE0F1E0819109
:1034C0008093F10081E0E331F807C9F736C080321C
:1034D00099F49132B1F58091E80082FFFCCFECE0E5
:1034E000F1E08091F100819381E0E331F807C9F7C1
:1034F0008BEF8093E80021C0823241F4913209F0D1
:1035000043C0E0926F030E94D31517C0811119C008
:1035100099830E94D3159981923851F40093E90060
:103520008091EB0085FB882780F91092E90001C0AB
:1035300080E08093F1001092F1008EEF8093E8001C
:1035400026C0282F2D7F2130F9F49230E9F4EF289E
:10355000D9F40F779FEF900F9430B0F49EEF9093D3
:10356000E8000093E900833079F089E18093EB0073
:1035700081E090E0002E01C0880F0A94EAF7809362
:10358000EA001092EA0003C081E28093EB000F9002
:10359000DF91CF91FF91EF91BF91AF919F918F916B
:1035A0007F916F915F914F913F912F911F910F915B
:1035B000FF90EF900F900FBE0F901F901895CF9334
:1035C000DF9360E080E00E94271DC8E1D8E06991A8
:1035D00081E00E94CC1C8AE0C031D807C1F7DF919E
:1035E000CF910895E8E1F8E011928AE0E031F80720
:1035F000D9F7089584359105F8F460337105E0F446
:103600009B0173E0359527957A95E1F774E5729FF4
:10361000F001739FF00D1124E80FF91FE85EF74FDA
:103620008081677021E030E001C0220F6A95EAF7DF
:10363000452B19F0282B2083089520952823FBCFB4
:103640002F923F924F925F926F927F928F929F92B2
:10365000AF92BF92CF92DF92EF92FF920F931F93A0
:10366000CF93DF93CDB7DEB728970FB6F894DEBFC0
:103670000FBECDBF98878F837B016A011901841724
:103680009507A1F56B0113C031E0C31AD1080FC033
:10369000C214D30494F0A801B6018F8198850E94CA
:1036A000FA1AE214F30484F72FEFC21AD20AE214D2
:1036B000F30474F72C143D0474F728960FB6F894AD
:1036C000DEBF0FBECDBFDF91CF911F910F91FF9055
:1036D000EF90DF90CF90BF90AF909F908F907F90B2
:1036E0006F905F904F903F902F90089562177307EF
:1036F00001F5AF80B88414C021E0A21AB10810C04F
:10370000AC14BD04D4F2A801B701C5010E94FA1A95
:103710008F8198858C159D057CF79FEFA91AB90AB2
:103720008F8198858C159D055CF7CA14DB045CF7C6
:10373000C4CF2F8138854217530754F48F2D710160
:10374000262E382E9F81888558874F83C92ED82EE4
:10375000C6012F813885821B930B9C838B83C1010B
:103760008E199F099A838983BC01990F880B990B45
:103770000E94A1214B015C012B813C81B901330FD7
:10378000880B990B0E94A1219B01AC01C501B401DA
:103790000E94F7202B013C0120E030E0A9010E94AB
:1037A000902287FF04C077FA709477F87094812C88
:1037B000912C54018A81881F8827881F282F30E088
:1037C0003E832D838B819C81181619060CF057C0FF
:1037D0002F813885C216D3060CF46FCFA801B7012C
:1037E0008F8198850E94FA1AA3019201C501B40144
:1037F0000E9481204B015C0120E030E040E05FE36B
:103800000E94902287FD08C089819A8118161906A6
:1038100074F42E143F0474F42B813C8112161306A9
:103820003CF58F819885019698878F83CBCFE214E2
:10383000F30494F3A801B7018F8198850E94FA1AC6
:1038400081E090E029813A811216130614F090E08D
:1038500080E02D813E81821B930BE80EF91E20E053
:1038600030E040E85FE3C501B4010E948020C2CF90
:103870002F8138852150310938872F83A3CF8F813D
:1038800098858C159D050CF0A9CF17CF4F925F92AC
:103890006F927F928F929F92AF92BF92CF92DF9260
:1038A000EF92FF920F931F93CF93DF935B01390148
:1038B0004052550B65E0649F9001659F300D1124C7
:1038C000A9014F525C4F7A018C012C0155E0450E45
:1038D000511C88248394912CF701C49061147104C5
:1038E00009F4C094D0E0C0E0D12CA4010C2E02C099
:1038F000440F551F0A94E2F74C215D210C2E02C0A3
:10390000559547950A94E2F7B5016C0F7D1FC801E4
:103910000E94FA1A2196C830D10539F74FEFE41A00
:10392000F40A0F5F1F4F04151505B1F6DF91CF9113
:103930001F910F91FF90EF90DF90CF90BF90AF90CD
:103940009F908F907F906F905F904F900895CF924F
:10395000DF92EF92FF920F931F93CF93DF937B0140
:103960008A016901D82FC0E0F801EC0FF11D4081F8
:10397000411109C0DF91CF911F910F91FF90EF90FE
:10398000DF90CF9008959601B7018D2F90E00E94AF
:10399000461CDB5FCF5FE8CF95B19F7D40E2849FFF
:1039A00090011124922B95B95F9887E090E070E028
:1039B0008F989B01082E02C0359527950A94E2F74F
:1039C00020FF06C02E9A8F9A019790F75F9A08956C
:1039D0002E98F9CFCF93C82F579A249A259A269AD2
:1039E000879A2C985F9A2C9A61E280E00E94CC1C06
:1039F0006C2F606880E00E94CC1C64E080E00E9434
:103A0000CC1C63E180E00E94CC1C6CE080E00E9452
:103A1000CC1C60E280E00E94CC1C6CE080E00E9444
:103A2000CC1C60E480E00E94CC1C60E880E0CF9178
:103A30000C94CC1CCF93DF93C8EFD1E060E081E021
:103A40000E94CC1C2197D1F7DF91CF910895CF939D
:103A5000C82F606480E00E94CC1C6C2F606880E0FE
:103A6000CF910C94CC1CAFE0B0E0E9E3FDE10C9405
:103A700081236C011B014A01FC011782168283819C
:103A800081FF34C39E012F5F3F4F3901F6019381BF
:103A9000F10193FD859193FF81911F01882309F422
:103AA000D6C2853239F493FD859193FF81911F0130
:103AB000853239F4B60190E00E9402255401450197
:103AC000E5CFF12C512C00E0003238F48B3209F1B3
:103AD00090F48032F9F0833209F107FD34C020ED13
:103AE000280F2A3020F506FF1BC0FAE0FF9E200DAC
:103AF0001124F22E05C08D3279F0803371F7016008
:103B0000F10193FD859193FF81911F018111DCCF1C
:103B10001AC002600460F4CF0860F2CF0061F0CFF9
:103B20003AE0539E200D1124522E0062E9CF8E32CE
:103B300021F406FD8CC20064E3CF8C3611F40068DA
:103B4000DFCF8836E9F29BEB980F933008F05CC02A
:103B50000061805E06FD02C046E0F42E102F1F7348
:103B6000853609F058C0106417FF5EC08F2D9BE3A7
:103B70009F1508F48BE344244394480E27E0F40196
:103B800061917191819191915F01042DA3010E9436
:103B900014244C01F981FC87F0FF03C00DE2F3FF10
:103BA00007C00BE211FD04C0012F047012FD00E2FA
:103BB0002C852C70E22E09F457C001119AC2F3E053
:103BC000E12CF515A0F483E0E52CE81A13FD08C0FC
:103BD000B60180E290E00E940225EA94E110F8CF5D
:103BE000002329F0B601802F90E00E9402253C8539
:103BF0002CE4822E21E0922E33FD04C090E5892E24
:103C000091E0992E107122C09BE9980F933008F033
:103C100034C10F7E9FCF863611F41068A5CFFF20E8
:103C200009F4A2CFFA94A0CFE7E02F2DEF1518F4F6
:103C300027E037E0F32E412CA2CF11118052B601BC
:103C400090E00E9402258FEF881A980AF40184916F
:103C50008111F3CFEE2009F432CFB60180E290E07B
:103C60000E940225EA94F6CF17FF70C0480CFC852D
:103C7000F4FF04C08A81813309F44A9414140CF0CF
:103C800087C028E0241510F488E0482E85E090E0F5
:103C900017FF06C0C40197FE02C090E080E00196C5
:103CA00001110196FF2031F02F2D30E02F5F3F4FA3
:103CB000820F931F5816190619F014F0E52CE81A14
:103CC000812F897011F4E11068C0002329F0B6013A
:103CD000802F90E00E94022513FD02C0E11064C015
:103CE00017FF7DC0840197FE02C010E000E0C40110
:103CF000841991092C016F2D70E0EE27FF27E61B38
:103D0000F70BFF87EE87801691060CF454C040161F
:103D100051060CF050C0F401E01BF10BE60DF71D4D
:103D20008181015011092E853F85021713070CF47C
:103D300044C0B60190E00E9402250F3F100719F71A
:103D4000B6018EE290E00E940225DDCF16FD9ECFE7
:103D5000EF2DF0E0E815F90534F03CEF83163FEF66
:103D600093060CF010683296E60DF71D01C0FA9428
:103D7000FF2019F082918033D1F317FF87CF4424BD
:103D800043944F0CF814190431F02CF0F8187ECF3E
:103D9000442443947BCFF12C79CFB60180E290E0AC
:103DA0000E940225EA948FCFB60180E390E00E9442
:103DB0000225EA9493CF80E3B4CF8016910641F4B4
:103DC0009A81963350F4953319F49C8594FF05C07D
:103DD000B60190E00E9402253DCF81E3F9CF8A81B0
:103DE000813319F0EC85EF7EEC87B60190E00E94FC
:103DF0000225FF20A9F0B6018EE290E00E94022584
:103E0000F394F394E2E001E00E0FE60DF72DF11DBF
:103E10008081B60190E00E940225E02F0F11F3CFC0
:103E200085E690E014FF02C085E490E0B6010E94B0
:103E3000022597FC06C081149104C1F4FC85F4FFAF
:103E400015C09194819491088DE2B60190E00E9492
:103E5000022580E33AE08316910454F4B60190E021
:103E60000E940225B601C401C096B4CF8BE2EDCF0B
:103E70008F5F2AE0821A9108EDCF8336B1F0833745
:103E800059F1833509F055C0F401819091905F019B
:103E90006F2D70E006FD02C06FEF7FEFC4010E943E
:103EA000EC249D878C8700680DC0540182E0A80E29
:103EB000B11CF4018081898321E030E03D872C87AB
:103EC00043010F7703FD06C02C853D85521613066E
:103ED00009F090F4E52C28C0F401819091905F01E5
:103EE0006F2D70E006FD02C06FEF7FEFC4010E94EE
:103EF000F7249D878C87E5CFB60180E290E00E9491
:103F000002255A94E1CFF40107FD859107FF8191C5
:103F10004F01B60190E00E940225E110EA948C85E1
:103F20009D8501979D878C87EC85FD85EF2B59F743
:103F300091CE843619F0893609F06EC0F40107FF7E
:103F400063C061917191819191915F01102F1F76F2
:103F500097FF08C090958095709561957F4F8F4F22
:103F60009F4F10682AE030E0A3010E94B125882EFF
:103F70008618982C012F16FF0AC00E7F8F1438F474
:103F800014FF04C012FD02C0012F0E7E9F2C04FFFF
:103F900085C0FE01E80DF11D8081803309F077C0F6
:103FA000097EF02FF870EF2E03FD87C000FF81C05F
:103FB000F82C951410F4F50CF91804FF84C0B60120
:103FC00080E390E00E94022502FF09C088E790E0AC
:103FD00001FF02C088E590E0B6010E9402258F141F
:103FE00008F47DC08A94082D10E00F5F1F4F060D66
:103FF000171DF80182918F01B60190E00E94022501
:1040000006151705B1F726CE619171915F01072E54
:10401000000C880B990B9ACF102F853791F41F7ED7
:104020002AE030E0F40117FF2CC061917191819179
:1040300091915F01A3010E94B125882E86181F77F8
:1040400098CF197F8F36D1F048F4883591F0F6017A
:10405000868197812F96E2E10C949D23803739F079
:104060008837A9F714FD146020E130E0DBCF106140
:10407000F9CF04FD166020E132E0D4CF28E030E033
:10408000D1CF619171915F0190E080E0D3CF02FDCB
:1040900002C0939486CF9394939483CF802F867895
:1040A00009F47FCFF6CFB60180E290E00E940225AE
:1040B00093949514C0F3E12C80CFE52CE918951466
:1040C00008F47BCFF8CF802F867809F488CF8BE275
:1040D00001FF80E207FD8DE2B60190E07ECFB601E0
:1040E00080E390E00E940225FA9479CF8FEF9FEF52
:1040F000B1CF24E0E12C251508F074CD84E064CD27
:104100005058BB27AA270E9498200C9442220E9454
:10411000092238F00E94102220F039F49F3F19F450
:1041200026F40C9406220EF4E095E7FB0C94002292
:10413000E92F0E94672258F3BA17620773078407B2
:10414000950720F079F4A6F50C9489220EF4E095F9
:104150000B2EBA2FA02D0B01B90190010C01CA0141
:10416000A0011124FF27591B99F0593F50F4503EEC
:1041700068F11A16F040A22F232F342F4427585FDE
:10418000F3CF469537952795A795F0405395C9F7F6
:104190007EF41F16BA0B620B730B840BBAF09150AE
:1041A000A1F0FF0FBB1F661F771F881FC2F70EC04D
:1041B000BA0F621F731F841F48F487957795679520
:1041C000B795F7959E3F08F0B0CF9395880F08F00C
:1041D0009927EE0F9795879508950E94DC2108F4A2
:1041E00081E008950E941922E3950C9453220E94C5
:1041F0000B210C9442220E94102258F00E940922A6
:1042000040F029F45F3F29F00C94002251110C94E6
:104210008A220C9406220E94672268F39923B1F344
:10422000552391F3951B550BBB27AA2762177307DC
:10423000840738F09F5F5F4F220F331F441FAA1F70
:10424000A9F335D00E2E3AF0E0E832D0915050402C
:10425000E695001CCAF72BD0FE2F29D0660F771FDA
:10426000881FBB1F261737074807AB07B0E809F0C0
:10427000BB0B802DBF01FF2793585F4F3AF09E3F45
:10428000510578F00C9400220C948A225F3FE4F3ED
:10429000983ED4F3869577956795B795F7959F5F88
:1042A000C9F7880F911D9695879597F90895E1E0D4
:1042B000660F771F881FBB1F621773078407BA0733
:1042C00020F0621B730B840BBA0BEE1F88F7E0958E
:1042D00008950E9470216894B1110C948A22089567
:1042E0000E946F2288F09F5798F0B92F9927B751F5
:1042F000B0F0E1F0660F771F881F991F1AF0BA958A
:10430000C9F714C0B13091F00E948922B1E008953C
:104310000C948922672F782F8827B85F39F0B93F2E
:10432000CCF3869577956795B395D9F73EF490953C
:104330008095709561957F4F8F4F9F4F0895E894BA
:1043400009C097FB3EF490958095709561957F4FDD
:104350008F4F9F4F9923A9F0F92F96E9BB2793958B
:10436000F695879577956795B795F111F8CFFAF49B
:10437000BB0F11F460FF1BC06F5F7F4F8F4F9F4FCC
:1043800016C0882311F096E911C0772321F09EE82A
:10439000872F762F05C0662371F096E8862F70E090
:1043A00060E02AF09A95660F771F881FDAF7880F6A
:1043B0009695879597F90895990F0008550FAA0BC0
:1043C000E0E8FEEF16161706E807F907C0F0121628
:1043D0001306E407F50798F0621B730B840B950B2B
:1043E00039F40A2661F0232B242B252B21F4089580
:1043F0000A2609F4A140A6958FEF811D811D08951D
:1044000097F99F6780E870E060E008959FEF80EC87
:10441000089500240A94161617061806090608952A
:1044200000240A94121613061406050608950C9427
:1044300006220E946F22D8F3E894E0E0BB279F5742
:10444000F0F02AED3FE049EC06C0EE0FBB0F661F0F
:10445000771F881F28F0B23A62077307840728F095
:10446000B25A620B730B840BE3959A9572F78038FE
:1044700030F49A95BB0F661F771F881FD2F79048BC
:104480000C940C23092E0394000C11F4882352F091
:10449000BB0F40F4BF2B11F460FF04C06F5F7F4F70
:1044A0008F4F9F4F0895EF93E0FF07C0A2EA2AEDD8
:1044B0003FE049EC5FEB0E9498200E9442220F905F
:1044C000039401FC9058EEE2F1E00C94182357FDA0
:1044D0009058440F551F59F05F3F71F04795880F72
:1044E00097FB991F61F09F3F79F087950895121609
:1044F00013061406551FF2CF4695F1DF08C01616B5
:1045000017061806991FF1CF869571056105089465
:104510000895E894BB2766277727CB0197F908957C
:104520000E94DC2108F48FEF08950E94A8220C94C9
:1045300042220E94092238F00E94102220F0952386
:1045400011F00C9400220C94062211240C948A225F
:104550000E94672270F3959FC1F3950F50E0551F9D
:10456000629FF001729FBB27F00DB11D639FAA27C8
:10457000F00DB11DAA1F649F6627B00DA11D661F17
:10458000829F2227B00DA11D621F739FB00DA11D38
:10459000621F839FA00D611D221F749F3327A00DF2
:1045A000611D231F849F600D211D822F762F6A2F8E
:1045B00011249F5750409AF0F1F088234AF0EE0FF3
:1045C000FF1FBB1F661F771F881F91505040A9F720
:1045D0009E3F510580F00C9400220C948A225F3F8C
:1045E000E4F3983ED4F3869577956795B795F7955C
:1045F000E7959F5FC1F7FE2B880F911D96958795D4
:1046000097F908959F930E9419220F9007FCEE5F7F
:104610000C9453229F3F31F0915020F48795779569
:104620006795B795880F911D9695879597F9089589
:104630009F938F937F936F93FF93EF939B01AC01B5
:104640000E949522EF91FF910E942C232F913F9180
:104650004F915F910C949522DF93CF931F930F930B
:10466000FF92EF92DF927B018C01689406C0DA2EF4
:10467000EF010E94A822FE01E894A59125913591B1
:1046800045915591A6F3EF010E949820FE019701F4
:10469000A801DA9469F7DF90EF90FF900F911F91D6
:1046A000CF91DF910895AA1BBB1B51E107C0AA1F40
:1046B000BB1FA617B70710F0A61BB70B881F991FC3
:1046C0005A95A9F780959095BC01CD01089597FB67
:1046D000072E16F4009407D077FD09D00E945323CB
:1046E00007FC05D03EF4909581959F4F08957095F5
:1046F00061957F4F0895EE0FFF1F0590F491E02D17
:1047000009942F923F924F925F926F927F928F9275
:104710009F92AF92BF92CF92DF92EF92FF920F9350
:104720001F93CF93DF93CDB7DEB7CA1BDB0B0FB65A
:10473000F894DEBF0FBECDBF09942A883988488817
:104740005F846E847D848C849B84AA84B984C884AD
:10475000DF80EE80FD800C811B81AA81B981CE0FA4
:10476000D11D0FB6F894DEBF0FBECDBFED01089589
:104770008F929F92AF92BF92CF92DF92EF92FF9271
:10478000CF93DF93EC01688179818A819B816115E8
:1047900071058105910521F464E279ED8BE597E0DF
:1047A0002DE133EF41E050E00E940F2649015A010C
:1047B0009B01AC01A7EAB1E40E942E266B017C01AB
:1047C000ACEEB4EFA50194010E943C26DC01CB01C4
:1047D0008C0D9D1DAE1DBF1DB7FF03C00197A10924
:1047E000B04888839983AA83BB839F77DF91CF9159
:1047F000FF90EF90DF90CF90BF90AF909F908F9001
:1048000008950E94B823089583E191E00E94B8239F
:104810000895B0E0A0E08093130190931401A09359
:104820001501B09316010895283008F027E03327CA
:10483000DA01990F311D87FD9160009661057105C0
:1048400039F432602E5F3D9330E32A95E1F7089505
:104850009F3F30F080387105610509F03C5F3C5F97
:104860003D93913008F08068911DDF93CF931F93A3
:104870000F93FF92EF92192F987F9695E92F9695B7
:104880009695E90FFF27E255FE4F99273327EE242F
:10489000FF24A701E70105900894079428F4360F38
:1048A000E71EF81E491F511D660F771F881F991FAD
:1048B0000694A1F70590079428F4E70EF81E491F07
:1048C000561FC11D770F881F991F661F0694A1F7F9
:1048D0000590079428F4F80E491F561FC71FD11DD5
:1048E000880F991F661F771F0694A1F705900794FC
:1048F00020F4490F561FC71FD81F990F661F771F37
:10490000881F0694A9F784911095177041F0D695E9
:10491000C79557954795F794E7941A95C1F7E4E53D
:10492000F1E06894159015913591659195910590F8
:104930007FE27395E118F10A430B560BC90BD009BE
:10494000C0F7E10CF11E431F561FC91FD01D7EF496
:10495000703311F48A95E6CFE894015030F0080FD7
:104960000AF40027021708F4202F2395022F7A3328
:1049700028F079E37D932A95E9F710C07D932A9575
:1049800089F6069497956795379517951794E118CA
:10499000F10A430B560BC90BD00998F023957E9171
:1049A00073957A3308F070E37C932013B8F77E9107
:1049B00070617D9330F0839571E37D9370E32A9568
:1049C000E1F71124EF90FF900F911F91CF91DF91AC
:1049D000992787FD90950895FC01059061507040DE
:1049E0000110D8F7809590958E0F9F1F0895FC01B8
:1049F0006150704001900110D8F7809590958E0F0E
:104A00009F1F08950F931F93CF93DF93182F092FA4
:104A1000EB018B8181FD09C01FEF0FEF812F902FDC
:104A2000DF91CF911F910F91089582FF14C02E81C5
:104A30003F818C819D81281739073CF4E881F981F9
:104A4000CF0101969983888310838E819F8101967F
:104A50009F838E83E3CFE885F985812F0995892B84
:104A6000A1F3DACFAEE0B0E0E8E3F5E20C948F23F7
:104A70000D891E898F89988D26E02C831A830983DE
:104A800097FF02C080E090E801979E838D83AE017E
:104A9000455E5F4F698D7A8DCE0101960E94331D70
:104AA0004D815E8157FD0AC02F813885421753071B
:104AB0000CF49A01020F131FF80110822E96E4E005
:104AC0000C94AB23AEE0B0E0E8E6F5E20C948F2363
:104AD0000D891E8986E08C831A8309838FEF9FE7F7
:104AE0009E838D83AE01475E5F4F6F89788DCE01C7
:104AF00001960E94331D2F813885020F131FF80184
:104B000010822E96E4E00C94AB23AEE0B0E0EBE82C
:104B1000F5E20C948F238C01FA0186E08C831A83D2
:104B2000098377FF02C060E070E8615071097E83FD
:104B30006D83A901BF01CE0101960E94331D4D81F5
:104B40005E8157FD0AC02F813885421753070CF448
:104B50009A01020F131FF80110822E96E4E00C94C4
:104B6000AB23FA01AA27283051F1203181F1E894D2
:104B70006F936E7F6E5F7F4F8F4F9F4FAF4FB1E050
:104B80003ED0B4E03CD0670F781F891F9A1FA11D4B
:104B9000680F791F8A1F911DA11D6A0F711D811D4C
:104BA000911DA11D20D009F468943F912AE0269F11
:104BB00011243019305D3193DEF6CF010895462F70
:104BC0004770405D4193B3E00FD0C9F7F6CF462F51
:104BD0004F70405D4A3318F0495D31FD40524193BA
:104BE00002D0A9F7EACFB4E0A69597958795779577
:104BF0006795BA95C9F700976105710508959B01FE
:104C0000AC010A2E06945795479537952795BA9586
:104C1000C9F7620F731F841F951FA01D0895052EED
:104C200097FB1EF400940E94262657FD07D00E9491
:104C3000412607FC03D04EF40C942626509540954F
:104C4000309521953F4F4F4F5F4F08959095809538
:104C5000709561957F4F8F4F9F4F08950E946326F7
:104C6000A59F900DB49F900DA49F800D911D1124C0
:104C70000895B7FF0C942E260E942E26821B930BBC
:104C80000895A1E21A2EAA1BBB1BFD010DC0AA1F8D
:104C9000BB1FEE1FFF1FA217B307E407F50720F0A5
:104CA000A21BB30BE40BF50B661F771F881F991F20
:104CB0001A9469F760957095809590959B01AC0169
:104CC000BD01CF010895A29FB001B39FC001A39F72
:104CD000700D811D1124911DB29F700D811D112435
:084CE000911D0895F894FFCF27
:104CE8008D0292029C02B6020500170300E1000043
:104CF800000008010000000D2043757272656E7493
:104D080020706F7374696F6E3A202825642C2564AF
:104D1800290A200D456C61707365642074696D659E
:104D280020697320256425643A256425640A200ACD
:104D3800200D53636F72653A2025640A200D4C6973
:104D48007665733A2025640A0D4F626A6563747349
:104D5800206C6566743A25642C25642C25640A0D3C
:104D68005475727265742041696D3A2025640A0D84
:104D7800506C61736D6120636F756E743A202564A1
:104D88000A0D0041737465726F69640041706F6346
:104D9800616C79707365006E313032303334373876
:104DA80000533A2564004C3A256400543A2564259A
:104DB800643A256425640047616D65206F766572E5
:104DC8000052657365743A205357320051756974FF
:104DD8003A2020535733000A0A723A2072657365E5
:104DE80074200A200D703A2070617573652F756EF6
:104DF8007061757365200A0D733A73686F77207355
:104E080074617475732073637265656E0A0D773A01
:104E18002073686F6F7420706C61736D610A0D6127
:104E28003A206D6F7665207374617266696768747D
:104E38006572206C6566740A0D643A206D6F76653C
:104E48002073746172666967687465722072696735
:104E58006874200A0D3F3A2053686F772074686998
:104E6800732073637265656E200A0A0D0031313153
:104E780031002031203131312031200020203120F3
:104E8800202031313120313131313120313131205F
:104E980020203120200020202031202020202031F7
:104EA800313120202031313131312031313131312E
:104EB8003131203131313131202020313131202040
:104EC8002020203120202000436F6E6E65637420FF
:104ED8005553422E2E2E0055534220636F6E6E6539
:104EE800637465640047414D45205245414459214A
:104EF800000D0A00256600202020203131312020B5
:104F080020203131313131313131313131313131AB
:104F18003131313131313131202020202020202001
:104F28002020202020313131313131312020000042
:00000001FF
